{
  "contractName": "HelloWorld",
  "abi": [
    {
      "inputs": [],
      "name": "getName",
      "outputs": [
        {
          "internalType": "string",
          "name": "",
          "type": "string"
        }
      ],
      "stateMutability": "view",
      "type": "function",
      "constant": true
    },
    {
      "inputs": [
        {
          "internalType": "string",
          "name": "newName",
          "type": "string"
        }
      ],
      "name": "setName",
      "outputs": [],
      "stateMutability": "nonpayable",
      "type": "function"
    }
  ],
  "bytecode": "0x60806040526040518060400160405280600481526020017f43656c6f000000000000000000000000000000000000000000000000000000008152506000908051906020019061004f929190610062565b5034801561005c57600080fd5b50610166565b82805461006e90610105565b90600052602060002090601f01602090048101928261009057600085556100d7565b82601f106100a957805160ff19168380011785556100d7565b828001600101855582156100d7579182015b828111156100d65782518255916020019190600101906100bb565b5b5090506100e491906100e8565b5090565b5b808211156101015760008160009055506001016100e9565b5090565b6000600282049050600182168061011d57607f821691505b6020821081141561013157610130610137565b5b50919050565b7f4e487b7100000000000000000000000000000000000000000000000000000000600052602260045260246000fd5b6103a1806101756000396000f3fe608060405234801561001057600080fd5b50600436106100365760003560e01c806317d7de7c1461003b578063c47f002714610059575b600080fd5b610043610075565b6040516100509190610288565b60405180910390f35b610073600480360381019061006e919061020a565b610107565b005b606060008054610084906102f9565b80601f01602080910402602001604051908101604052809291908181526020018280546100b0906102f9565b80156100fd5780601f106100d2576101008083540402835291602001916100fd565b820191906000526020600020905b8154815290600101906020018083116100e057829003601f168201915b5050505050905090565b81816000919061011892919061011d565b505050565b828054610129906102f9565b90600052602060002090601f01602090048101928261014b5760008555610192565b82601f1061016457803560ff1916838001178555610192565b82800160010185558215610192579182015b82811115610191578235825591602001919060010190610176565b5b50905061019f91906101a3565b5090565b5b808211156101bc5760008160009055506001016101a4565b5090565b60008083601f8401126101d257600080fd5b8235905067ffffffffffffffff8111156101eb57600080fd5b60208301915083600182028301111561020357600080fd5b9250929050565b6000806020838503121561021d57600080fd5b600083013567ffffffffffffffff81111561023757600080fd5b610243858286016101c0565b92509250509250929050565b600061025a826102aa565b61026481856102b5565b93506102748185602086016102c6565b61027d8161035a565b840191505092915050565b600060208201905081810360008301526102a2818461024f565b905092915050565b600081519050919050565b600082825260208201905092915050565b60005b838110156102e45780820151818401526020810190506102c9565b838111156102f3576000848401525b50505050565b6000600282049050600182168061031157607f821691505b602082108114156103255761032461032b565b5b50919050565b7f4e487b7100000000000000000000000000000000000000000000000000000000600052602260045260246000fd5b6000601f19601f830116905091905056fea26469706673582212206815268f2938fe8887999334e2a3de4269743fb6540ce3f5a0dfba11c6c20bb964736f6c63430008040033",
  "immutableReferences": {},
  "source": "// SPDX-License-Identifier: MIT\npragma solidity ^0.8.0;\n\ncontract HelloWorld {\n    string private _name = \"Celo\";\n\n    function getName() public view returns (string memory) {\n        return _name;\n    }\n\n    function setName(string calldata newName) external {\n        _name = newName;\n    }\n}\n",
  "sourcePath": "/Users/kirillmadorin/Desktop/Projects/celo-camp/celo-margin-truffle/contracts/HelloWorld.sol",
  "compiler": {
    "name": "solc",
    "version": "0.8.4+commit.c7e474f2.Emscripten.clang"
  },
  "schemaVersion": "3.4.1",
  "updatedAt": "2021-10-29T21:37:19.520Z",
  "networkType": "ethereum",
  "devdoc": {
    "kind": "dev",
    "methods": {},
    "version": 1
  },
  "userdoc": {
    "kind": "user",
    "methods": {},
    "version": 1
  }
}