{
  "contractName": "SolarisMargin",
  "abi": [
    {
      "inputs": [
        {
          "internalType": "contract ILendingPoolAddressesProvider",
          "name": "_addressProvider",
          "type": "address"
        },
        {
          "internalType": "contract IProtocolDataProvider",
          "name": "_dataProvider",
          "type": "address"
        },
        {
          "internalType": "contract IUniswapV2Router02",
          "name": "_router",
          "type": "address"
        }
      ],
      "stateMutability": "nonpayable",
      "type": "constructor"
    },
    {
      "anonymous": false,
      "inputs": [
        {
          "indexed": false,
          "internalType": "uint8",
          "name": "positionType",
          "type": "uint8"
        }
      ],
      "name": "PositionOpened",
      "type": "event"
    },
    {
      "inputs": [],
      "name": "ADDRESSES_PROVIDER",
      "outputs": [
        {
          "internalType": "contract ILendingPoolAddressesProvider",
          "name": "",
          "type": "address"
        }
      ],
      "stateMutability": "view",
      "type": "function"
    },
    {
      "inputs": [],
      "name": "LENDING_POOL",
      "outputs": [
        {
          "internalType": "contract ILendingPool",
          "name": "",
          "type": "address"
        }
      ],
      "stateMutability": "view",
      "type": "function"
    },
    {
      "inputs": [],
      "name": "UBESWAP_ROUTER",
      "outputs": [
        {
          "internalType": "contract IUniswapV2Router02",
          "name": "",
          "type": "address"
        }
      ],
      "stateMutability": "view",
      "type": "function"
    },
    {
      "inputs": [],
      "name": "getName",
      "outputs": [
        {
          "internalType": "string",
          "name": "",
          "type": "string"
        }
      ],
      "stateMutability": "view",
      "type": "function"
    },
    {
      "inputs": [
        {
          "internalType": "address[]",
          "name": "assets",
          "type": "address[]"
        },
        {
          "internalType": "uint256[]",
          "name": "amounts",
          "type": "uint256[]"
        },
        {
          "internalType": "uint256[]",
          "name": "premiums",
          "type": "uint256[]"
        },
        {
          "internalType": "address",
          "name": "initiator",
          "type": "address"
        },
        {
          "internalType": "bytes",
          "name": "params",
          "type": "bytes"
        }
      ],
      "name": "executeOperation",
      "outputs": [
        {
          "internalType": "bool",
          "name": "",
          "type": "bool"
        }
      ],
      "stateMutability": "nonpayable",
      "type": "function"
    },
    {
      "inputs": [
        {
          "internalType": "address",
          "name": "baseAsset",
          "type": "address"
        },
        {
          "internalType": "address",
          "name": "quoteAsset",
          "type": "address"
        },
        {
          "internalType": "uint256",
          "name": "amount",
          "type": "uint256"
        },
        {
          "internalType": "uint256",
          "name": "minAmount",
          "type": "uint256"
        },
        {
          "internalType": "uint256",
          "name": "leverage",
          "type": "uint256"
        }
      ],
      "name": "openLongPosition",
      "outputs": [],
      "stateMutability": "nonpayable",
      "type": "function"
    },
    {
      "inputs": [
        {
          "internalType": "address",
          "name": "_tokenIn",
          "type": "address"
        },
        {
          "internalType": "address",
          "name": "_tokenOut",
          "type": "address"
        },
        {
          "internalType": "uint256",
          "name": "_amountIn",
          "type": "uint256"
        },
        {
          "internalType": "uint256",
          "name": "_amountOutMin",
          "type": "uint256"
        },
        {
          "internalType": "address",
          "name": "_to",
          "type": "address"
        }
      ],
      "name": "swap",
      "outputs": [],
      "stateMutability": "nonpayable",
      "type": "function"
    }
  ],
  "bytecode": "0x6101006040526040518060400160405280600e81526020017f536f6c61726973204d617267696e0000000000000000000000000000000000008152506000908051906020019062000052929190620001f0565b503480156200006057600080fd5b50604051620027de380380620027de833981810160405281019062000086919062000328565b80838073ffffffffffffffffffffffffffffffffffffffff1660808173ffffffffffffffffffffffffffffffffffffffff1660601b815250508073ffffffffffffffffffffffffffffffffffffffff16630261bf8b6040518163ffffffff1660e01b815260040160206040518083038186803b1580156200010657600080fd5b505afa1580156200011b573d6000803e3d6000fd5b505050506040513d601f19601f82011682018060405250810190620001419190620002fc565b73ffffffffffffffffffffffffffffffffffffffff1660a08173ffffffffffffffffffffffffffffffffffffffff1660601b81525050508073ffffffffffffffffffffffffffffffffffffffff1660c08173ffffffffffffffffffffffffffffffffffffffff1660601b81525050508173ffffffffffffffffffffffffffffffffffffffff1660e08173ffffffffffffffffffffffffffffffffffffffff1660601b81525050505050620004bb565b828054620001fe90620003ee565b90600052602060002090601f0160209004810192826200022257600085556200026e565b82601f106200023d57805160ff19168380011785556200026e565b828001600101855582156200026e579182015b828111156200026d57825182559160200191906001019062000250565b5b5090506200027d919062000281565b5090565b5b808211156200029c57600081600090555060010162000282565b5090565b600081519050620002b18162000453565b92915050565b600081519050620002c8816200046d565b92915050565b600081519050620002df8162000487565b92915050565b600081519050620002f681620004a1565b92915050565b6000602082840312156200030f57600080fd5b60006200031f84828501620002a0565b91505092915050565b6000806000606084860312156200033e57600080fd5b60006200034e86828701620002b7565b93505060206200036186828701620002ce565b92505060406200037486828701620002e5565b9150509250925092565b60006200038b82620003ce565b9050919050565b60006200039f826200037e565b9050919050565b6000620003b3826200037e565b9050919050565b6000620003c7826200037e565b9050919050565b600073ffffffffffffffffffffffffffffffffffffffff82169050919050565b600060028204905060018216806200040757607f821691505b602082108114156200041e576200041d62000424565b5b50919050565b7f4e487b7100000000000000000000000000000000000000000000000000000000600052602260045260246000fd5b6200045e816200037e565b81146200046a57600080fd5b50565b620004788162000392565b81146200048457600080fd5b50565b6200049281620003a6565b81146200049e57600080fd5b50565b620004ac81620003ba565b8114620004b857600080fd5b50565b60805160601c60a05160601c60c05160601c60e05160601c61229e620005406000396000610e7a01526000818161021a0152818161057f0152818161076f0152818161109701526112870152600081816104860152818161053f01528181610b7801528181610cbb01528181610d8e0152610f9401526000610164015261229e6000f3fe608060405234801561001057600080fd5b506004361061007d5760003560e01c8063920f5c841161005b578063920f5c84146100dc578063b4dcfc771461010c578063d5bcb9b51461012a578063f75debd8146101465761007d565b80630542975c1461008257806317d7de7c146100a057806338964484146100be575b600080fd5b61008a610162565b6040516100979190611c5e565b60405180910390f35b6100a8610186565b6040516100b59190611d1d565b60405180910390f35b6100c6610218565b6040516100d39190611c94565b60405180910390f35b6100f660048036038101906100f191906116a1565b61023c565b6040516101039190611c43565b60405180910390f35b61011461053d565b6040516101219190611c79565b60405180910390f35b610144600480360381019061013f91906115b3565b610561565b005b610160600480360381019061015b919061162a565b61082e565b005b7f000000000000000000000000000000000000000000000000000000000000000081565b606060008054610195906120c2565b80601f01602080910402602001604051908101604052809291908181526020018280546101c1906120c2565b801561020e5780601f106101e35761010080835404028352916020019161020e565b820191906000526020600020905b8154815290600101906020018083116101f157829003601f168201915b5050505050905090565b7f000000000000000000000000000000000000000000000000000000000000000081565b600080838381019061024e91906117f3565b90506000811415610378576103778b8b6000818110610296577f4e487b7100000000000000000000000000000000000000000000000000000000600052603260045260246000fd5b90506020020160208101906102ab919061153b565b8a8a60008181106102e5577f4e487b7100000000000000000000000000000000000000000000000000000000600052603260045260246000fd5b9050602002013589896000818110610326577f4e487b7100000000000000000000000000000000000000000000000000000000600052603260045260246000fd5b9050602002013587878080601f016020809104026020016040519081016040528093929190818152602001838380828437600081840152601f19601f82011690508083019250505050505050610c52565b5b60005b8b8b905081101561052a5760006104198989848181106103c4577f4e487b7100000000000000000000000000000000000000000000000000000000600052603260045260246000fd5b905060200201358c8c85818110610404577f4e487b7100000000000000000000000000000000000000000000000000000000600052603260045260246000fd5b9050602002013561103590919063ffffffff16565b90508c8c83818110610454577f4e487b7100000000000000000000000000000000000000000000000000000000600052603260045260246000fd5b9050602002016020810190610469919061153b565b73ffffffffffffffffffffffffffffffffffffffff1663095ea7b37f0000000000000000000000000000000000000000000000000000000000000000836040518363ffffffff1660e01b81526004016104c3929190611b82565b602060405180830381600087803b1580156104dd57600080fd5b505af11580156104f1573d6000803e3d6000fd5b505050506040513d601f19601f8201168201806040525081019061051591906117ca565b5050808061052290612125565b91505061037b565b5060019150509998505050505050505050565b7f000000000000000000000000000000000000000000000000000000000000000081565b8473ffffffffffffffffffffffffffffffffffffffff1663095ea7b37f0000000000000000000000000000000000000000000000000000000000000000856040518363ffffffff1660e01b81526004016105bc929190611b82565b602060405180830381600087803b1580156105d657600080fd5b505af11580156105ea573d6000803e3d6000fd5b505050506040513d601f19601f8201168201806040525081019061060e91906117ca565b506060600267ffffffffffffffff811115610652577f4e487b7100000000000000000000000000000000000000000000000000000000600052604160045260246000fd5b6040519080825280602002602001820160405280156106805781602001602082028036833780820191505090505b50905085816000815181106106be577f4e487b7100000000000000000000000000000000000000000000000000000000600052603260045260246000fd5b602002602001019073ffffffffffffffffffffffffffffffffffffffff16908173ffffffffffffffffffffffffffffffffffffffff16815250508481600181518110610733577f4e487b7100000000000000000000000000000000000000000000000000000000600052603260045260246000fd5b602002602001019073ffffffffffffffffffffffffffffffffffffffff16908173ffffffffffffffffffffffffffffffffffffffff16815250507f000000000000000000000000000000000000000000000000000000000000000073ffffffffffffffffffffffffffffffffffffffff166338ed173985858486426040518663ffffffff1660e01b81526004016107ce959493929190611d3f565b600060405180830381600087803b1580156107e857600080fd5b505af11580156107fc573d6000803e3d6000fd5b505050506040513d6000823e3d601f19601f820116820180604052508101906108259190611789565b50505050505050565b8473ffffffffffffffffffffffffffffffffffffffff166323b872dd3330866040518463ffffffff1660e01b815260040161086b93929190611ac0565b602060405180830381600087803b15801561088557600080fd5b505af1158015610899573d6000803e3d6000fd5b505050506040513d601f19601f820116820180604052508101906108bd91906117ca565b506000600167ffffffffffffffff811115610901577f4e487b7100000000000000000000000000000000000000000000000000000000600052604160045260246000fd5b60405190808252806020026020018201604052801561092f5781602001602082028036833780820191505090505b509050858160008151811061096d577f4e487b7100000000000000000000000000000000000000000000000000000000600052603260045260246000fd5b602002602001019073ffffffffffffffffffffffffffffffffffffffff16908173ffffffffffffffffffffffffffffffffffffffff16815250506000600167ffffffffffffffff8111156109ea577f4e487b7100000000000000000000000000000000000000000000000000000000600052604160045260246000fd5b604051908082528060200260200182016040528015610a185781602001602082028036833780820191505090505b509050610a41610a3260018561104b90919063ffffffff16565b8661106190919063ffffffff16565b81600081518110610a7b577f4e487b7100000000000000000000000000000000000000000000000000000000600052603260045260246000fd5b6020026020010181815250506000600167ffffffffffffffff811115610aca577f4e487b7100000000000000000000000000000000000000000000000000000000600052604160045260246000fd5b604051908082528060200260200182016040528015610af85781602001602082028036833780820191505090505b509050600081600081518110610b37577f4e487b7100000000000000000000000000000000000000000000000000000000600052603260045260246000fd5b60200260200101818152505060003090506000803389898c604051602001610b63959493929190611cca565b604051602081830303815290604052905060007f000000000000000000000000000000000000000000000000000000000000000073ffffffffffffffffffffffffffffffffffffffff1663ab9c4b5d308888888888886040518863ffffffff1660e01b8152600401610bdb9796959493929190611af7565b600060405180830381600087803b158015610bf557600080fd5b505af1158015610c09573d6000803e3d6000fd5b505050507f75184ae7397a9f6b11c2263699f00bd9b7421f2d18732db76a580e50164ec00a6000604051610c3d9190611caf565b60405180910390a15050505050505050505050565b60008060008084806020019051810190610c6c919061181c565b9450945094509450506000610c8a888561103590919063ffffffff16565b90506000610c9b8a84848730611077565b90508273ffffffffffffffffffffffffffffffffffffffff1663095ea7b37f000000000000000000000000000000000000000000000000000000000000000083600181518110610d14577f4e487b7100000000000000000000000000000000000000000000000000000000600052603260045260246000fd5b60200260200101516040518363ffffffff1660e01b8152600401610d39929190611b82565b602060405180830381600087803b158015610d5357600080fd5b505af1158015610d67573d6000803e3d6000fd5b505050506040513d601f19601f82011682018060405250810190610d8b91906117ca565b507f000000000000000000000000000000000000000000000000000000000000000073ffffffffffffffffffffffffffffffffffffffff1663e8eda9df8483600181518110610e03577f4e487b7100000000000000000000000000000000000000000000000000000000600052603260045260246000fd5b60200260200101518960006040518563ffffffff1660e01b8152600401610e2d9493929190611bab565b600060405180830381600087803b158015610e4757600080fd5b505af1158015610e5b573d6000803e3d6000fd5b505050506000610e74898b61103590919063ffffffff16565b905060007f000000000000000000000000000000000000000000000000000000000000000073ffffffffffffffffffffffffffffffffffffffff1663d2493b6c866040518263ffffffff1660e01b8152600401610ed19190611aa5565b60606040518083038186803b158015610ee957600080fd5b505afa158015610efd573d6000803e3d6000fd5b505050506040513d601f19601f82011682018060405250810190610f219190611564565b509150508073ffffffffffffffffffffffffffffffffffffffff1663c04a8a1030846040518363ffffffff1660e01b8152600401610f60929190611b82565b600060405180830381600087803b158015610f7a57600080fd5b505af1158015610f8e573d6000803e3d6000fd5b505050507f000000000000000000000000000000000000000000000000000000000000000073ffffffffffffffffffffffffffffffffffffffff1663a415bcad8d84600260008d6040518663ffffffff1660e01b8152600401610ff5959493929190611bf0565b600060405180830381600087803b15801561100f57600080fd5b505af1158015611023573d6000803e3d6000fd5b50505050505050505050505050505050565b600081836110439190611e94565b905092915050565b600081836110599190611f44565b905092915050565b6000818361106f9190611eea565b905092915050565b60608573ffffffffffffffffffffffffffffffffffffffff1663095ea7b37f0000000000000000000000000000000000000000000000000000000000000000866040518363ffffffff1660e01b81526004016110d4929190611b82565b602060405180830381600087803b1580156110ee57600080fd5b505af1158015611102573d6000803e3d6000fd5b505050506040513d601f19601f8201168201806040525081019061112691906117ca565b506060600267ffffffffffffffff81111561116a577f4e487b7100000000000000000000000000000000000000000000000000000000600052604160045260246000fd5b6040519080825280602002602001820160405280156111985781602001602082028036833780820191505090505b50905086816000815181106111d6577f4e487b7100000000000000000000000000000000000000000000000000000000600052603260045260246000fd5b602002602001019073ffffffffffffffffffffffffffffffffffffffff16908173ffffffffffffffffffffffffffffffffffffffff1681525050858160018151811061124b577f4e487b7100000000000000000000000000000000000000000000000000000000600052603260045260246000fd5b602002602001019073ffffffffffffffffffffffffffffffffffffffff16908173ffffffffffffffffffffffffffffffffffffffff16815250507f000000000000000000000000000000000000000000000000000000000000000073ffffffffffffffffffffffffffffffffffffffff166338ed173986868487426040518663ffffffff1660e01b81526004016112e6959493929190611d3f565b600060405180830381600087803b15801561130057600080fd5b505af1158015611314573d6000803e3d6000fd5b505050506040513d6000823e3d601f19601f8201168201806040525081019061133d9190611789565b91505095945050505050565b600061135c61135784611dbe565b611d99565b9050808382526020820190508285602086028201111561137b57600080fd5b60005b858110156113ab57816113918882611526565b84526020840193506020830192505060018101905061137e565b5050509392505050565b6000813590506113c48161220c565b92915050565b6000815190506113d98161220c565b92915050565b6000815190506113ee81612223565b92915050565b60008083601f84011261140657600080fd5b8235905067ffffffffffffffff81111561141f57600080fd5b60208301915083602082028301111561143757600080fd5b9250929050565b60008083601f84011261145057600080fd5b8235905067ffffffffffffffff81111561146957600080fd5b60208301915083602082028301111561148157600080fd5b9250929050565b600082601f83011261149957600080fd5b81516114a9848260208601611349565b91505092915050565b6000815190506114c18161223a565b92915050565b60008083601f8401126114d957600080fd5b8235905067ffffffffffffffff8111156114f257600080fd5b60208301915083600182028301111561150a57600080fd5b9250929050565b60008135905061152081612251565b92915050565b60008151905061153581612251565b92915050565b60006020828403121561154d57600080fd5b600061155b848285016113b5565b91505092915050565b60008060006060848603121561157957600080fd5b6000611587868287016113ca565b9350506020611598868287016113ca565b92505060406115a9868287016113ca565b9150509250925092565b600080600080600060a086880312156115cb57600080fd5b60006115d9888289016113b5565b95505060206115ea888289016113b5565b94505060406115fb88828901611511565b935050606061160c88828901611511565b925050608061161d888289016113b5565b9150509295509295909350565b600080600080600060a0868803121561164257600080fd5b6000611650888289016113b5565b9550506020611661888289016113b5565b945050604061167288828901611511565b935050606061168388828901611511565b925050608061169488828901611511565b9150509295509295909350565b600080600080600080600080600060a08a8c0312156116bf57600080fd5b60008a013567ffffffffffffffff8111156116d957600080fd5b6116e58c828d016113f4565b995099505060208a013567ffffffffffffffff81111561170457600080fd5b6117108c828d0161143e565b975097505060408a013567ffffffffffffffff81111561172f57600080fd5b61173b8c828d0161143e565b9550955050606061174e8c828d016113b5565b93505060808a013567ffffffffffffffff81111561176b57600080fd5b6117778c828d016114c7565b92509250509295985092959850929598565b60006020828403121561179b57600080fd5b600082015167ffffffffffffffff8111156117b557600080fd5b6117c184828501611488565b91505092915050565b6000602082840312156117dc57600080fd5b60006117ea848285016114b2565b91505092915050565b60006020828403121561180557600080fd5b600061181384828501611511565b91505092915050565b600080600080600060a0868803121561183457600080fd5b600061184288828901611526565b9550506020611853888289016113df565b945050604061186488828901611526565b935050606061187588828901611526565b9250506080611886888289016113df565b9150509295509295909350565b600061189f83836118c3565b60208301905092915050565b60006118b78383611a87565b60208301905092915050565b6118cc81611f78565b82525050565b6118db81611f78565b82525050565b60006118ec82611e0a565b6118f68185611e50565b935061190183611dea565b8060005b838110156119325781516119198882611893565b975061192483611e36565b925050600181019050611905565b5085935050505092915050565b600061194a82611e15565b6119548185611e61565b935061195f83611dfa565b8060005b8381101561199057815161197788826118ab565b975061198283611e43565b925050600181019050611963565b5085935050505092915050565b6119a681611f9c565b82525050565b60006119b782611e20565b6119c18185611e72565b93506119d181856020860161208f565b6119da816121fb565b840191505092915050565b6119ee81611fed565b82525050565b6119fd81612011565b82525050565b611a0c81612035565b82525050565b611a1b81612059565b82525050565b611a2a8161206b565b82525050565b611a398161207d565b82525050565b6000611a4a82611e2b565b611a548185611e83565b9350611a6481856020860161208f565b611a6d816121fb565b840191505092915050565b611a8181611fa8565b82525050565b611a9081611fd6565b82525050565b611a9f81611fd6565b82525050565b6000602082019050611aba60008301846118d2565b92915050565b6000606082019050611ad560008301866118d2565b611ae260208301856118d2565b611aef6040830184611a96565b949350505050565b600060e082019050611b0c600083018a6118d2565b8181036020830152611b1e81896118e1565b90508181036040830152611b32818861193f565b90508181036060830152611b46818761193f565b9050611b5560808301866118d2565b81810360a0830152611b6781856119ac565b9050611b7660c0830184611a78565b98975050505050505050565b6000604082019050611b9760008301856118d2565b611ba46020830184611a96565b9392505050565b6000608082019050611bc060008301876118d2565b611bcd6020830186611a96565b611bda60408301856118d2565b611be76060830184611a12565b95945050505050565b600060a082019050611c0560008301886118d2565b611c126020830187611a96565b611c1f6040830186611a30565b611c2c6060830185611a12565b611c3960808301846118d2565b9695505050505050565b6000602082019050611c58600083018461199d565b92915050565b6000602082019050611c7360008301846119e5565b92915050565b6000602082019050611c8e60008301846119f4565b92915050565b6000602082019050611ca96000830184611a03565b92915050565b6000602082019050611cc46000830184611a21565b92915050565b600060a082019050611cdf6000830188611a21565b611cec60208301876118d2565b611cf96040830186611a96565b611d066060830185611a96565b611d1360808301846118d2565b9695505050505050565b60006020820190508181036000830152611d378184611a3f565b905092915050565b600060a082019050611d546000830188611a96565b611d616020830187611a96565b8181036040830152611d7381866118e1565b9050611d8260608301856118d2565b611d8f6080830184611a96565b9695505050505050565b6000611da3611db4565b9050611daf82826120f4565b919050565b6000604051905090565b600067ffffffffffffffff821115611dd957611dd86121cc565b5b602082029050602081019050919050565b6000819050602082019050919050565b6000819050602082019050919050565b600081519050919050565b600081519050919050565b600081519050919050565b600081519050919050565b6000602082019050919050565b6000602082019050919050565b600082825260208201905092915050565b600082825260208201905092915050565b600082825260208201905092915050565b600082825260208201905092915050565b6000611e9f82611fd6565b9150611eaa83611fd6565b9250827fffffffffffffffffffffffffffffffffffffffffffffffffffffffffffffffff03821115611edf57611ede61216e565b5b828201905092915050565b6000611ef582611fd6565b9150611f0083611fd6565b9250817fffffffffffffffffffffffffffffffffffffffffffffffffffffffffffffffff0483118215151615611f3957611f3861216e565b5b828202905092915050565b6000611f4f82611fd6565b9150611f5a83611fd6565b925082821015611f6d57611f6c61216e565b5b828203905092915050565b6000611f8382611fb6565b9050919050565b6000611f9582611fb6565b9050919050565b60008115159050919050565b600061ffff82169050919050565b600073ffffffffffffffffffffffffffffffffffffffff82169050919050565b6000819050919050565b600060ff82169050919050565b6000611ff882611fff565b9050919050565b600061200a82611fb6565b9050919050565b600061201c82612023565b9050919050565b600061202e82611fb6565b9050919050565b600061204082612047565b9050919050565b600061205282611fb6565b9050919050565b600061206482611fa8565b9050919050565b600061207682611fe0565b9050919050565b600061208882611fd6565b9050919050565b60005b838110156120ad578082015181840152602081019050612092565b838111156120bc576000848401525b50505050565b600060028204905060018216806120da57607f821691505b602082108114156120ee576120ed61219d565b5b50919050565b6120fd826121fb565b810181811067ffffffffffffffff8211171561211c5761211b6121cc565b5b80604052505050565b600061213082611fd6565b91507fffffffffffffffffffffffffffffffffffffffffffffffffffffffffffffffff8214156121635761216261216e565b5b600182019050919050565b7f4e487b7100000000000000000000000000000000000000000000000000000000600052601160045260246000fd5b7f4e487b7100000000000000000000000000000000000000000000000000000000600052602260045260246000fd5b7f4e487b7100000000000000000000000000000000000000000000000000000000600052604160045260246000fd5b6000601f19601f8301169050919050565b61221581611f78565b811461222057600080fd5b50565b61222c81611f8a565b811461223757600080fd5b50565b61224381611f9c565b811461224e57600080fd5b50565b61225a81611fd6565b811461226557600080fd5b5056fea2646970667358221220d55170214675c04897bd2fb2b026ef338c5479279d948a353140746e4fcddb6a64736f6c63430008040033",
  "immutableReferences": {
    "940": [
      {
        "length": 32,
        "start": 3706
      }
    ],
    "1460": [
      {
        "length": 32,
        "start": 356
      }
    ],
    "1464": [
      {
        "length": 32,
        "start": 1158
      },
      {
        "length": 32,
        "start": 1343
      },
      {
        "length": 32,
        "start": 2936
      },
      {
        "length": 32,
        "start": 3259
      },
      {
        "length": 32,
        "start": 3470
      },
      {
        "length": 32,
        "start": 3988
      }
    ],
    "1491": [
      {
        "length": 32,
        "start": 538
      },
      {
        "length": 32,
        "start": 1407
      },
      {
        "length": 32,
        "start": 1903
      },
      {
        "length": 32,
        "start": 4247
      },
      {
        "length": 32,
        "start": 4743
      }
    ]
  },
  "source": "// SPDX-License-Identifier: MIT\npragma solidity ^0.8.0;\n\nimport \"@openzeppelin/contracts/token/ERC20/IERC20.sol\";\nimport \"@openzeppelin/contracts/utils/math/SafeMath.sol\";\nimport {FlashLoanReceiverBase} from \"./helpers/FlashLoanReceiverBase.sol\";\nimport {UbeswapBase} from \"./helpers/UbeswapBase.sol\";\nimport {ILendingPoolAddressesProvider} from \"./interfaces/ILendingPoolAddressesProvider.sol\";\nimport {IUniswapV2Router02} from \"./interfaces/IUniswapV2Router02.sol\";\nimport {IProtocolDataProvider} from \"./interfaces/IProtocolDataProvider.sol\";\nimport {IStableDebtToken} from \"./interfaces/IStableDebtToken.sol\";\n\n/// @title Solaris margin trading contract\n/// @author Kirill Madorin\n/// @notice You can use this contract to open leveraged positions using Moola flashloans and Ubeswap\n/// @custom:experimental This is an experimental contract.\n\ncontract SolarisMargin is FlashLoanReceiverBase, UbeswapBase {\n    using SafeMath for uint256;\n    string private _name = \"Solaris Margin\";\n\n    IProtocolDataProvider private immutable MOOLA_DATA_PROVIDER;\n\n    constructor(ILendingPoolAddressesProvider _addressProvider, IProtocolDataProvider _dataProvider, IUniswapV2Router02 _router) FlashLoanReceiverBase(_addressProvider) UbeswapBase(_router) {\n        MOOLA_DATA_PROVIDER = _dataProvider;\n    }\n\n    event PositionOpened(\n        uint8 positionType\n    );\n\n    function getName() public view returns (string memory) {\n        return _name;\n    }\n\n    ///@notice executes after flashloan\n    ///@param assets flashloan assets\n    ///@param amounts flashloan amounts\n    ///@param premiums flashloan premiums\n    ///@param initiator flashloan initiator\n    ///@param params type of operation\n    function executeOperation(\n        address[] calldata assets,\n        uint256[] calldata amounts,\n        uint256[] calldata premiums,\n        address initiator,\n        bytes calldata params\n    ) external override returns (bool) {\n        uint256 operation = abi.decode(params, (uint256));\n\n        if (operation == 0) {\n            _executeOpenLongPosition(assets[0], amounts[0], premiums[0], params);\n        }\n\n        // Approve the LendingPool contract allowance to *pull* the owed amount\n        for (uint i = 0; i < assets.length; i++) {\n            uint amountOwing = amounts[i].add(premiums[i]);\n            IERC20(assets[i]).approve(address(LENDING_POOL), amountOwing);\n        }\n\n        return true;\n    }\n\n    /// @notice opens long leveraged position, i.e cUSD -> CELO\n    /// @param baseAsset Base asset address\n    /// @param quoteAsset Quote Asset address\n    /// @param amount amount Base asset amount\n    /// @param minAmount minimal amount of Quote Asset that will be deposited to Moola\n    /// @param leverage - leverage size\n    function openLongPosition(address baseAsset, address quoteAsset, uint256 amount, uint256 minAmount, uint256 leverage) external {\n        // transfer amount of baseAsset to contract\n        IERC20(baseAsset).transferFrom(msg.sender, address(this), amount);\n\n        // take flashloan amount of baseAsset\n        address[] memory assets = new address[](1);\n        assets[0] = baseAsset;\n\n        uint256[] memory amounts = new uint256[](1);\n        amounts[0] = amount.mul(leverage.sub(1));\n\n        // 0 = no debt, 1 = stable, 2 = variable\n        uint256[] memory modes = new uint256[](1);\n        modes[0] = 0;\n\n        address onBehalfOf = address(this);\n        bytes memory params = abi.encode(0, msg.sender, amount, minAmount, quoteAsset);\n        uint16 referralCode = 0;\n\n        LENDING_POOL.flashLoan(address(this), assets, amounts, modes, onBehalfOf, params, referralCode);\n\n        emit PositionOpened(0);\n    }\n\n    function _executeOpenLongPosition(address asset,\n        uint256 amount,\n        uint256 premium,\n        bytes memory params) private\n    {\n        // decode params\n        (, address sender, uint256 initialAmount, uint256 minAmount, address quoteAsset) = abi.decode(params, (uint256, address, uint256, uint256, address));\n\n        uint256 swapAmount = initialAmount.add(amount);\n\n        // swap base assets to quote assets\n        uint256[] memory afterSwapAmounts = _swap(asset, quoteAsset, swapAmount, minAmount, address(this));\n\n        // approve quote asset amount received after swap\n        IERC20(quoteAsset).approve(address(LENDING_POOL), afterSwapAmounts[1]);\n\n        // deposit all quote assets to Moola onBehalfOf sender\n        LENDING_POOL.deposit(quoteAsset, afterSwapAmounts[1], sender, 0);\n\n        // approve credit delegation\n        uint256 amountToRepay = amount.add(premium);\n        (, address stableDebtTokenAddress,) = MOOLA_DATA_PROVIDER.getReserveTokensAddresses(quoteAsset);\n        IStableDebtToken(stableDebtTokenAddress).approveDelegation(address(this), amountToRepay);\n\n        // borrow flash amount + premium from Moola to repay flashloan\n        LENDING_POOL.borrow(asset, amountToRepay, 2, 0, sender);\n    }\n\n\n    function _swap(\n        address _tokenIn,\n        address _tokenOut,\n        uint _amountIn,\n        uint _amountOutMin,\n        address _to\n    ) private returns (uint[] memory amounts) {\n        IERC20(_tokenIn).approve(address(UBESWAP_ROUTER), _amountIn);\n\n        address[] memory path;\n\n        path = new address[](2);\n        path[0] = _tokenIn;\n        path[1] = _tokenOut;\n\n        return UBESWAP_ROUTER.swapExactTokensForTokens(\n            _amountIn,\n            _amountOutMin,\n            path,\n            _to,\n            block.timestamp\n        );\n    }\n\n    function swap(\n        address _tokenIn,\n        address _tokenOut,\n        uint _amountIn,\n        uint _amountOutMin,\n        address _to\n    ) external {\n        IERC20(_tokenIn).approve(address(UBESWAP_ROUTER), _amountIn);\n\n        address[] memory path;\n\n        path = new address[](2);\n        path[0] = _tokenIn;\n        path[1] = _tokenOut;\n\n        UBESWAP_ROUTER.swapExactTokensForTokens(\n            _amountIn,\n            _amountOutMin,\n            path,\n            _to,\n            block.timestamp\n        );\n    }\n}\n",
  "sourcePath": "/Users/kirillmadorin/Desktop/Projects/celo-camp/celo-margin-truffle/contracts/SolarisMargin.sol",
  "compiler": {
    "name": "solc",
    "version": "0.8.4+commit.c7e474f2.Emscripten.clang"
  },
  "schemaVersion": "3.4.1",
  "updatedAt": "2021-11-01T10:42:28.526Z",
  "devdoc": {
    "author": "Kirill Madorin",
    "custom:experimental": "This is an experimental contract.",
    "kind": "dev",
    "methods": {
      "executeOperation(address[],uint256[],uint256[],address,bytes)": {
        "params": {
          "amounts": "flashloan amounts",
          "assets": "flashloan assets",
          "initiator": "flashloan initiator",
          "params": "type of operation",
          "premiums": "flashloan premiums"
        }
      },
      "openLongPosition(address,address,uint256,uint256,uint256)": {
        "params": {
          "amount": "amount Base asset amount",
          "baseAsset": "Base asset address",
          "leverage": "- leverage size",
          "minAmount": "minimal amount of Quote Asset that will be deposited to Moola",
          "quoteAsset": "Quote Asset address"
        }
      }
    },
    "title": "Solaris margin trading contract",
    "version": 1
  },
  "userdoc": {
    "kind": "user",
    "methods": {
      "executeOperation(address[],uint256[],uint256[],address,bytes)": {
        "notice": "executes after flashloan"
      },
      "openLongPosition(address,address,uint256,uint256,uint256)": {
        "notice": "opens long leveraged position, i.e cUSD -> CELO"
      }
    },
    "notice": "You can use this contract to open leveraged positions using Moola flashloans and Ubeswap",
    "version": 1
  }
}